:100000000C9431000C943B000C943B000C943B008E
:100010000C943B000C943B000C943B000C943B0074
:100020000C943B000C943B000C943B000C943B0064
:100030000C943B000C943B000C943B000C943B0054
:100040000C943B000C943B000C943B000C943B0044
:100050000C943B00730077007C007E0082008600D9
:10006000880011241FBECFE5D8E0DEBFCDBF0E94BF
:100070003D000C94A8000C94000087E090E00E94E2
:100080008C0084E090E00E946A0084B3846884BBA2
:1000900080E090E00E9461000E949E00813411F493
:1000A000AA9AFACF823411F4AA98F6CF833411F4C5
:1000B000AF9AF2CF843411F4AF98EECF80E090E0A5
:1000C0000895009719F0019719F008956E9A089510
:1000D0006E980895019787309105E8F4865D9F4FEB
:1000E000FC010C94A2008DB18C7F8DB90895689AA3
:1000F0008DB18C7F8DB908956898699A8DB18360B0
:100100008DB970988DB18C7F8DB9689A689A69980D
:100110008DB183608DB908958630910519F00797E8
:1001200039F008956C9A87B3806B87BBBE980895A9
:100130006C98BD98BC98BF98BE9A0895779BFECFE7
:100140008FB10895EE0FFF1F0590F491E02D0994F3
:04015000F894FFCF51
:00000001FF
