S01A0000536D61727420486F6D652050726F6A6563742E7372656363
S11300000C9431000C943B000C943B000C943B008A
S11300100C943B000C943B000C943B000C943B0070
S11300200C943B000C943B000C943B000C943B0060
S11300300C943B000C943B000C943B000C943B0050
S11300400C943B000C943B000C943B000C943B0040
S11300500C943B00640068006D006F00730077002F
S1130060790011241FBECFE5D8E0DEBFCDBF0E94CA
S11300703D000C94CD020C94000080E895E20E94AF
S1130080B40086E090E00E947D0084E090E00E944D
S11300905B0080E090E00E9452000E94BA000E943F
S11300A08F00FBCF009719F0019719F008956E9A0D
S11300B008956E980895019787309105E8F4865D58
S11300C09F4FFC010C94C7028DB18C7F8DB90895AC
S11300D0689A8DB18C7F8DB908956898699A8DB1AD
S11300E083608DB970988DB18C7F8DB9689A689A48
S11300F069988DB183608DB908958630910519F0A2
S1130100079739F008956C9A87B3806B87BBBE98C4
S113011008956C98BD98BC98BF98BE9A08958FB9FD
S1130120779BFECF0895BC0180E090E00E94CC0153
S113013020E030E040E851E40E945A029B01AC0107
S113014060E074E284E79BE40E942B0120E030E04D
S113015040E85FE30E94BE000E949D0169B980B53A
S11301608F7780BD70BD08950E9493008AB1886125
S11301708AB908955F9BFECF8CB108955058BB2770
S1130180AA270E94D6000C9420020E94120238F082
S11301900E94190220F039F49F3F19F426F40C94BC
S11301A00F020EF4E095E7FB0C940902E92F0E947C
S11301B0310258F3BA17620773078407950720F0D2
S11301C079F4A6F50C9453020EF4E0950B2EBA2F95
S11301D0A02D0B01B90190010C01CA01A001112449
S11301E0FF27591B99F0593F50F4503E68F11A16F5
S11301F0F040A22F232F342F4427585FF3CF469586
S113020037952795A795F0405395C9F77EF41F16A7
S1130210BA0B620B730B840BBAF09150A1F0FF0F71
S1130220BB1F661F771F881FC2F70EC0BA0F621F5D
S1130230731F841F48F4879577956795B795F7954D
S11302409E3F08F0B0CF9395880F08F09927EE0FE2
S11302509795879508950E943F010C9420020E946F
S1130260190258F00E94120240F029F45F3F29F06D
S11302700C94090251110C9454020C940F020E9424
S1130280310268F39923B1F3552391F3951B550B70
S1130290BB27AA2762177307840738F09F5F5F4F55
S11302A0220F331F441FAA1FA9F335D00E2E3AF094
S11302B0E0E832D091505040E695001CCAF72BD0AC
S11302C0FE2F29D0660F771F881FBB1F26173707FD
S11302D04807AB07B0E809F0BB0B802DBF01FF272F
S11302E093585F4F3AF09E3F510578F00C94090201
S11302F00C9454025F3FE4F3983ED4F386957795CB
S11303006795B795F7959F5FC9F7880F911D9695E7
S1130310879597F90895E1E0660F771F881FBB1F43
S1130320621773078407BA0720F0621B730B840BF0
S1130330BA0BEE1F88F7E09508950E94390288F001
S11303409F5798F0B92F9927B751B0F0E1F0660F95
S1130350771F881F991F1AF0BA95C9F714C0B130D6
S113036091F00E945302B1E008950C945302672F58
S1130370782F8827B85F39F0B93FCCF38695779505
S11303806795B395D9F73EF49095809570956195EE
S11303907F4F8F4F9F4F0895E89409C097FB3EF419
S11303A090958095709561957F4F8F4F9F4F9923BE
S11303B0A9F0F92F96E9BB279395F695879577953C
S11303C06795B795F111F8CFFAF4BB0F11F460FFFC
S11303D01BC06F5F7F4F8F4F9F4F16C0882311F054
S11303E096E911C0772321F09EE8872F762F05C068
S11303F0662371F096E8862F70E060E02AF09A9503
S1130400660F771F881FDAF7880F9695879597F9F7
S1130410089597F99F6780E870E060E008959FEF82
S113042080EC089500240A94161617061806090687
S1130430089500240A941216130614060506089556
S1130440092E0394000C11F4882352F0BB0F40F4DE
S1130450BF2B11F460FF04C06F5F7F4F8F4F9F4F1E
S1130460089557FD9058440F551F59F05F3F71F0A0
S11304704795880F97FB991F61F09F3F79F0879507
S11304800895121613061406551FF2CF4695F1DF90
S113049008C0161617061806991FF1CF8695710520
S11304A0610508940895E894BB2766277727CB0154
S11304B097F908950E946D020C9420020E94120282
S11304C038F00E94190220F0952311F00C940902CF
S11304D00C940F0211240C9454020E94310270F304
S11304E0959FC1F3950F50E0551F629FF001729FD5
S11304F0BB27F00DB11D639FAA27F00DB11DAA1FE4
S1130500649F6627B00DA11D661F829F2227B00D30
S1130510A11D621F739FB00DA11D621F839FA00DBB
S1130520611D221F749F3327A00D611D231F849F0B
S1130530600D211D822F762F6A2F11249F57504062
S11305409AF0F1F088234AF0EE0FFF1FBB1F661FDD
S1130550771F881F91505040A9F79E3F510580F0A6
S11305600C9409020C9454025F3FE4F3983ED4F3D4
S1130570869577956795B795F795E7959F5FC1F74A
S1130580FE2B880F911D9695879597F90895EE0F88
S1110590FF1F0590F491E02D0994F894FFCF1D
S9030000FC
